:020000040800F2
:100000006007002095210008990200089B02000863
:100010009F020008A3020008A702000800000000D9
:10002000000000000000000000000000AB0200081B
:10003000AD02000800000000AF02000867020008DF
:10004000AF210008AF210008AF210008AF21000850
:10005000AF210008AF210008AF210008AF21000840
:10006000AF210008AF210008AF210008AF21000830
:10007000AF210008AF210008AF210008AF21000820
:10008000AF210008AF210008AF210008AF21000810
:10009000AF210008AF210008AF210008AF21000800
:1000A000AF210008AF210008AF210008AF210008F0
:1000B000AF210008AF210008AF210008AF210008E0
:1000C000AF210008AF210008AF210008AF210008D0
:1000D000AF2100080D270008AF210008AF2100085C
:1000E000AF210008AF210008AF21000800F002F89E
:1000F00000F03FF80AA090E8000C82448344AAF183
:100100000107DA4501D100F034F8AFF2090EBAE880
:100110000F0013F0010F18BFFB1A43F0010318473B
:10012000F028000010290000103A24BF78C878C1D8
:10013000FAD8520724BF30C830C144BF04680C60ED
:10014000704700000023002400250026103A28BF35
:1001500078C1FBD8520728BF30C148BF0B60704739
:10016000642902F05B83002070471FB51FBD10B5E6
:1001700010BD02F01DFC1146FFF7F7FF00F010F86C
:1001800002F03BFC03B4FFF7F2FF03BC02F064FA99
:100190003949086000BF384909680029FBD1704718
:1001A00008B50024354800684FF47A72B0FBF2F1CC
:1001B000B1F1807F00D31DE021F07F40401E4FF061
:1001C000E022506150170F22002807DA13071F0E94
:1001D0002B4B00F00F06361F9F5503E013071E0E32
:1001E000284B1E5400BF00204FF0E02290610720F2
:1001F000106100BF4FF4A06000F048F901F0EAFF81
:1002000041F65010034641F6631241F63C1100904E
:1002100041F61F4002F0CCF824E0002413E0002057
:1002200019490860204602F089F90546294617A0B9
:1002300002F0B4FA01201749C1F8B0016420FFF7B9
:10024000A7FF601CC4B2FF2CE9DBAA2002F076F9FC
:10025000054629460DA002F0A1FA6420FFF798FF99
:1002600002F02CF8D9E70448006820B10248006881
:10027000401E014908607047000000200400002073
:1002800018ED00E000E400E0B081214225640D0A91
:100290000000000000802142704700BFFEE700BF61
:1002A000FEE700BFFEE700BFFEE7704770477047FC
:1002B0000CB50020019000906B48006840F480303D
:1002C0006949086000BF6848006800F40030009089
:1002D0000198401C0190009818B90198B0F5A06FE2
:1002E000F1D16148006810F4003F02D00120009075
:1002F00001E0002000900098012842D15B4800688E
:1003000040F01000594908600846006820F00300DA
:1003100008600846006840F00200086052484068E3
:10032000514948600846406848600846406840F4C3
:10033000806048600846406820F47C1048600846A9
:10034000406840F4E81048600846006840F080705B
:10035000086000BF4448006810F0007FFAD04248AF
:10036000406820F00300404948600846406840F07B
:100370000200486000BF3C48406800F00C000828BC
:10038000F9D10CBD10B5FFF793FF10BD10B536487D
:10039000006840F00100344908600846406834496C
:1003A00008403149486008460068324908402E49F3
:1003B00008600846006820F480200860084640680D
:1003C00020F4FE0048604FF41F008860FFF7DAFF5A
:1003D0004FF000602849086010BD10B500210020D2
:1003E0000022214B5B6803F00C0121B1042906D0E7
:1003F000082928D107E0214B214C236027E01F4B1F
:100400001F4C236023E0184B5B6803F47010164BFD
:100410005B6803F48032022303EB904022B9194B4E
:100420004343174C23600DE00F4B5B6813F4003F10
:1004300004D0144B4343124C236003E00F4B43435F
:100440000F4C236003E00D4B0D4C236000BF00BF39
:10045000054B5B68C3F303130B4CE15C084B1B6853
:10046000CB40074C236010BD00100240002002402A
:100470000000FFF8FFFFF6FE08ED00E000127A0032
:100480000400002000093D0008000020314901431C
:10049000314A1160704770B5002100230F22C478E3
:1004A0000CB32D4C246804F4E064C4F5E064210A24
:1004B000C1F10403CA40447804FA03F1847814407B
:1004C00021430901254C0678A155047804F01F0545
:1004D0000124AC4005786D114FF0E02606EB850550
:1004E000C5F8004109E0047804F01F050124AC4080
:1004F0001B4D0678761145F8264070BD194A0A4012
:100500000243154B1B1F1A60704739B1124A121D66
:1005100012680243104B1B1D1A6006E00E4A121DA2
:10052000126882430C4B1B1D1A607047042808D1C7
:100530004FF0E021096941F004014FF0E022116120
:1005400007E04FF0E021096921F004014FF0E022BB
:10055000116170470000FA050CED00E000E400E0D6
:1005600080E100E080FFFF1F10B50446CA488442C6
:1005700008D10121042000F027FB0021042000F015
:1005800023FB46E0C548844208D10121082000F041
:100590001BFB0021082000F017FB3AE0C048844212
:1005A00008D10121102000F00FFB0021102000F0E5
:1005B0000BFB2EE0BB48844208D10121202000F033
:1005C00003FB0021202000F0FFFA22E0B64884421D
:1005D00008D10121402000F0F7FA0021402000F06E
:1005E000F3FA16E0B148844208D10121802000F0DE
:1005F000EBFA0021802000F0E7FA0AE0AC488442E0
:1006000007D10121801500F0DFFA0021A01500F0CC
:10061000DBFA10BD10B50121084600F0D5FA002123
:10062000012000F0D1FA10BD2DE9F041024600256D
:100630000026002000230024002791F803C00CF0BE
:100640000F0591F803C01CF0100F03D091F802C001
:100650004CEA050591F800C0BCF1000F31D01468D8
:1006600000202BE04FF0010C0CFA00F3B1F800C0B1
:100670000CEA03069E4220D183004FF00F0C0CFAC7
:1006800003F7BC4305FA03FC4CEA040491F803C0E9
:10069000BCF1280F06D14FF0010C0CFA00FCC2F897
:1006A00014C00AE091F803C0BCF1480F05D14FF027
:1006B000010C0CFA00FCC2F810C0401C0828D1D371
:1006C0001460B1F800C0BCF1FF0F34DD54680020A5
:1006D0002EE000F1080C4FF0010808FA0CF3B1F815
:1006E00000C00CEA03069E4221D183004FF00F0C9C
:1006F0000CFA03F7BC4305FA03FC4CEA040491F836
:1007000003C0BCF1280F05D100F1080C08FA0CF861
:10071000C2F8148091F803C0BCF1480F07D100F172
:10072000080C4FF0010808FA0CF8C2F81080401CC1
:100730000828CED35460BDE8F0814FF6FF710180E8
:10074000022181700421C170704702460020936825
:100750000B4201D0012000E000207047014688686C
:1007600080B2704702460020D3680B4201D00120BE
:1007700000E0002070470146C86880B27047016100
:100780007047416170470AB1016100E04161704703
:10079000C16070474FF480320A4382618161826197
:1007A00082698269704702460020424B18684FF602
:1007B0008073184040EA021008433E4B18607047AF
:1007C0003D49C8617047F0B50A4600230024002166
:1007D000002500F00046B6F1004F02D1354EF16918
:1007E00001E0344E7168C0F3034583B200F4401653
:1007F000B6F5401F08D121F070612E4E766826F0C4
:1008000070662C4F7E6012E000F48016B6F5801FF3
:1008100006D1032606FA05F4A14341F0706106E013
:10082000460D360103FA06F6B14341F0706122B17C
:10083000460D360103FA06F6314300F00046B6F1E4
:10084000004F02D11B4EF16101E01A4E7160F0BD04
:1008500030B500228B071C0F0F2303FA04F2154B4F
:1008600008338C1053F824309343124C08348D1005
:1008700044F8253023468C1053F824308C07240F7D
:1008800000FA04F423430B4C08348D1044F825304F
:1008900030BD0A490860704700080140000C014063
:1008A000001001400014014000180140001C0140EC
:1008B000002001400000014000002042DC002042F6
:1008C000DD48006840F00100DB49086008464068E8
:1008D000DA490840D849486008460068D8490840C5
:1008E000D54908600846006820F480200860084662
:1008F000406820F4FE0048604FF41F008860704795
:10090000CD49096821F48031CB4A1160114609684C
:1009100021F480211160B0F5803F03D0B0F5802F25
:100920000ED106E0C449096841F48031C24A116021
:1009300007E0C149096841F4A021BF4A116000E005
:1009400000BF00BF704710B5014600220023002001
:100950004A11012A02D1B84C236806E0022A02D1CA
:10096000B54C236A01E0B44C636A01F01F02012414
:1009700094401C4201D0012000E0002010BD38B599
:10098000002000900024002500BF3120FFF7DBFF8E
:1009900005460098401C00900098B0F5A06F01D06B
:1009A000002DF2D03120FFF7CEFF08B1012400E086
:1009B0000024204638BD014600209F4A106820F0E0
:1009C000F80040EAC100106070479E490860704717
:1009D00002460020984B586820F47C1042EA01033C
:1009E0001843954B58607047964908667047014612
:1009F0000020914A506820F003000843506070477F
:100A00008D48406800F00C007047014600208A4A7B
:100A1000506820F0F0000843506070470146002005
:100A2000854A506820F4E0600843506070470146F2
:100A30000020814A506820F4605040EAC1005060B4
:100A4000704729B17C4A527A02437B4B5A7204E0C8
:100A5000794A527A8243784B5A7270477A490860D1
:100A6000704701460020744A506820F44040084313
:100A7000506070470021754A11706F4A82F820104B
:100A8000012802D0042808D103E001216F4A117027
:100A900004E005216D4A117000E000BF00BF7047FF
:100AA0006B49086070476449096A0143624A1162F0
:100AB0007047674944390860704730B5002100220B
:100AC000002400235C4D6D6805F00C0121B1042960
:100AD00005D0082923D105E05E4D056022E05D4D7B
:100AE00005601FE0544D6D6805F47012524D6D683D
:100AF00005F48034022505EB92421CB9564D55434E
:100B000005600BE04C4D6D6815F4003F03D0524D6D
:100B10005543056002E04F4D5543056002E04D4DE1
:100B2000056000BF00BF444D6D6805F0F001090984
:100B30004A4D6B5C0568DD4045603F4D6D6805F4CE
:100B4000E061090A454D6B5C4568DD4085603A4DC2
:100B50006D6805F46051C90A404D6B5C4568DD4025
:100B6000C560354D6D6805F44041890B3C4D6B5CAB
:100B7000C568B5FBF3F5056130BD29B12E4A526950
:100B800002432D4B5A6104E02B4A526982432A4B9F
:100B90005A61704729B1284A92690243264B9A61EB
:100BA00004E0254A92698243234B9A61704729B138
:100BB000214AD2690243204BDA6104E01E4AD2691D
:100BC00082431D4BDA61704729B11B4AD268024348
:100BD000194BDA6004E0184AD2688243164BDA6097
:100BE000704729B1144A12690243134B1A6104E099
:100BF000114A12698243104B1A61704714494039F7
:100C0000086070470F49C86470470B49C871704746
:100C10000948406A40F080700749486270470146C1
:100C20000020054A92680A4201D0012000E000201D
:100C30007047014988727047001002400000FFF8B9
:100C4000FFFFF6FE00004242D80042422010024060
:100C50008004424200127A0000093D001800002082
:100C60002800002010B50446BE48844208D1012166
:100C70008014FFF7A9FF0021A014FFF7A5FF16E0DD
:100C8000B948844208D101210014FFF7AAFF0021CE
:100C90002014FFF7A6FF0AE0B448844207D10121DF
:100CA000C013FFF79EFF0021E013FFF79AFF10BD6E
:100CB00010B50022028802F441520B884C8823436D
:100CC0008C882343CC8823430C8923434C892343BA
:100CD0008C892343CC8923431A430280838B4FF2B0
:100CE000FF74234083830B8A038210BD2DE9F04FEC
:100CF00085B005460C464FF0000902274FF000086A
:100D00004FF0010B0026B246A88B4FF2400108407D
:100D1000A88302202884B5F81C90A068022801D17D
:100D200000BF38E0A08810B94FF0010B01E04FF090
:100D3000020B8D48854200D100E000BF6846FFF7F6
:100D4000BCFEDDF800A0E088B0F5007F0AD14FEAD4
:100D50001A2000EB80004000A168B0FBF1F0401DBC
:100D600086B20BE04FEA4B10BAFBF0F000EB8000CC
:100D70004000A168B0FBF1F0401D86B20A20B6FB2E
:100D8000F0F606F00108A6EB0800C0F34F074FF697
:100D9000FF7000EA0828022F01DBFF2F02DD022787
:100DA0004FF00008E08840EA080038432884A08813
:100DB000A1890843618808432188084340F4006002
:100DC00040EA0909A5F81C9005B0BDE8F08F0021A4
:100DD000018041808180C180018141818181C18107
:100DE0000721018270470021018041808180C180FC
:100DF0000221816000218181704721B1028842F087
:100E00004002028004E002884FF6BF731A4002805D
:100E1000704721B1828B42F48062828304E0828B2E
:100E20004FF6FF331A408283704730B50024002309
:100E30000C110125A540ABB21AB185881D438580F0
:100E400002E085889D43858030BD1AB183880B43BD
:100E5000838002E083888B43838070478181704761
:100E6000014688897047A1F57E42FF3A04D0028886
:100E700042F48072028004E002884FF6FF631A4059
:100E80000280704721B1828842F00402828004E02F
:100E900082884FF6FB731A408280704702884FF2B7
:100EA000FF731A40028002880A430280704701885B
:100EB00041F480510180704721B1028842F4005210
:100EC000028004E002884DF6FF731A4002807047EA
:100ED00002460020012901D0108B00E0908A704763
:100EE0000146088A7047B1F5804F04D1028842F468
:100EF0008042028004E002884BF6FF731A400280B1
:100F000070470246002013890B4201D0012000E007
:100F100000207047CA4302817047F0B502460020A6
:100F200000240023002501F00F070126BE40B4B2C3
:100F30000B1101269E40B3B2968806EA0305168976
:100F4000264202D00DB1012000E00020F0BD10B516
:100F5000002201F00F040123A3409AB2D34303817E
:100F600010BD00000030014000380040003C00404F
:100F700010B50446FE48844208D10121C014FFF791
:100F800023FE0021E014FFF71FFEC4E0B4F1804F00
:100F900008D101210846FFF724FE00210120FFF7B8
:100FA00020FEB8E0F348844208D101210220FFF777
:100FB00018FE00210220FFF714FEACE0EE48844248
:100FC00008D101210420FFF70CFE00210420FFF7C7
:100FD00008FEA0E0E948844208D101210820FFF77B
:100FE00000FE00210820FFF7FCFD94E0E448844265
:100FF00008D101211020FFF7F4FD00211020FFF798
:10100000F0FD88E0DF48844208D101212020FFF76D
:10101000E8FD00212020FFF7E4FD7CE0DA4884426F
:1010200008D101214014FFF7CFFD00216014FFF724
:10103000CBFD70E0D548844209D10121C804FFF7F7
:10104000C3FD00214FF40020FFF7BEFD63E0D04850
:10105000844209D101210805FFF7B6FD00214FF4B4
:101060008010FFF7B1FD56E0CA48844209D1012142
:101070004805FFF7A9FD00214FF40010FFF7A4FD7C
:1010800049E0C548844208D101214020FFF7A9FD6D
:1010900000214020FFF7A5FD3DE0C048844208D173
:1010A00001218020FFF79DFD00218020FFF799FDA1
:1010B00031E0BB48844208D101218015FFF791FD42
:1010C0000021A015FFF78DFD25E0B648844209D127
:1010D00001210804FFF778FD00214FF48030FFF76D
:1010E00073FD18E0B048844209D101214804FFF79C
:1010F0006BFD00214FF40030FFF766FD0BE0AB48BD
:10110000844208D101218804FFF75EFD00214FF4DD
:101110008020FFF759FD10BD00220288944B9842B1
:101120000ED0994B98420BD0B0F1804F08D0914B24
:10113000984205D0904B984202D0904B984204D1EF
:101140004FF68F731A404B881A438D4B984207D045
:101150008C4B984204D04FF6FF431A40CB881A4379
:1011600002808B8883850B880385814B98420BD046
:10117000854B984208D08B4B984205D08A4B9842B9
:1011800002D08A4B984201D10B7A038601238382D5
:10119000704770B5002400220023058C4FF6FE76C0
:1011A00035400584028C8388048B4FF68F752C4064
:1011B000B51E2C400D882C43751E2A400D892A43EC
:1011C0004D882A436A4DA8420BD06F4DA84208D0E3
:1011D000744DA84205D0744DA84202D0734DA84268
:1011E00013D14FF6F7752A404D892A434FF6FB7508
:1011F0002A408D882A434FF6FF652B404FF6FF5556
:101200002B408D892B43CD892B4383800483CD884C
:101210008586028470BD70B5002400220023058CF1
:101220004FF6EF7635400584028C8388048B48F6B0
:10123000FF752C404FF6FF452C400D884FF6FF768A
:1012400006EA05252C434FF6DF752A400D8906EA8C
:1012500005152A434D8806EA05152A43444DA84240
:1012600002D0494DA8421DD14FF67F752A404D89C5
:101270004FF6FF7606EA05152A434FF6BF752A405A
:101280008D8806EA05152A434FF6FF352B404FF2AD
:10129000FF752B408D8906EA85052B43CD8906EA2B
:1012A00085052B4383800483CD880587028470BD28
:1012B00070B5002400220023058C4FF6FF663540F0
:1012C0000584028C8388848B4FF68F752C404FF6F3
:1012D000FC752C400D882C434FF6FF552A400D8994
:1012E0004FF6FF7606EA05252A434D8806EA0525CE
:1012F0002A431F4DA84202D0234DA8421DD14FF2D0
:10130000FF752A404D894FF6FF7606EA05252A43E8
:101310004FF6FF352A408D8806EA05252A434EF60A
:10132000FF752B404DF6FF752B408D8906EA05159C
:101330002B43CD8906EA05152B4383808483CD8812
:101340008587028470BD70B5002200230024058CBF
:101350004EF6FF7635400584038C8488828B48F6F0
:10136000FF752A404FF6FF452A400D8820E0000017
:10137000002C01400004004000080040000C004028
:10138000001000400014004000340140004C0140B7
:10139000005001400054014000180040001C004073
:1013A000002000400040014000440140004801404E
:1013B0004FF6FF7606EA05252A434DF6FF752B40CA
:1013C0000D8906EA05352B434D8806EA05352B4382
:1013D000FA4DA84202D0FA4DA84208D14BF6FF754B
:1013E0002C408D894FF6FF7606EA85152C438480C4
:1013F0008283CD88A0F84050038470BD828B4FF269
:10140000FF331A408283828B4FF6FF7303EA012376
:101410001A4382837047F0B50C461546002200211E
:101420000026078C4EF6FF7C07EA0C070784828BA8
:10143000018C4FF6FF7707EA043640F6FF473A4043
:101440004FF6FF7707EA05273A434FF6FF7707EA9B
:1014500003373A43D94FB8420ED0D94FB8420BD0D8
:10146000B0F1804F08D0D74FB84205D0D64FB84220
:1014700002D0D64FB84206D14DF6FF77394046F438
:101480008057394305E047F6FF57394044F4805709
:10149000394382830184F0BD828B4FF6F3731A4087
:1014A0008283828B0A4382837047F0B50C461546CF
:1014B000002200210026078C4FF6FF6C07EA0C077C
:1014C0000784828B018C4FF6FF7707EA04264FF6DC
:1014D0000C773A404FF6FF7707EA03172F433A435A
:1014E000B64FB8420ED0B64FB8420BD0B0F1804FD5
:1014F00008D0B44FB84205D0B34FB84202D0B34F72
:10150000B84206D14FF6FF57394046F48077394349
:1015100005E04FF2FF57394044F480773943828326
:101520000184F0BD028B4FF2FF331A400283028B1D
:101530004FF6FF7303EA01231A4302837047F0B5A5
:101540000C461546002200210026078C4FF6EF7C42
:1015500007EA0C070784028B018C4FF6FF7707EA36
:10156000041640F6FF473A404FF6FF7707EA033785
:101570003A434FF6FF7707EA05273A438F4FB842C1
:101580000ED08F4FB8420BD0B0F1804F08D08D4FA6
:10159000B84205D08C4FB84202D08C4FB84206D129
:1015A0004FF6DF77394046F01007394305E04FF634
:1015B0005F77394044F01007394302830184F0BD5E
:1015C000028B4FF6F3731A400283028B0A430283A5
:1015D0007047F0B50C46154600220021068C4FF6E8
:1015E000FE773E400684028B018C4FF60C7632402B
:1015F0007E1C06EA03162E433243704EB0420ED0D4
:101600006F4EB0420BD0B0F1804F08D06D4EB0425B
:1016100005D06D4EB04202D06C4EB04206D14FF6AE
:10162000FD76314044F00106314305E04FF6F57692
:10163000314044F00106314302830184F0BD70B5AE
:1016400005460C465D4885420ED05D4885420BD06C
:10165000B5F1804F08D05B48854205D05A48854295
:1016600002D05A48854200D100E000BF208850B91E
:101670002389A28861882846FFF7ABFFE1882846C6
:10168000FFF79EFF25E0208804280AD12389A2883D
:1016900061882846FFF753FFE1882846FFF742FF9D
:1016A00017E0208808280AD12389A2886188284663
:1016B000FFF7FBFEE1882846FFF7EEFE09E02389ED
:1016C000A28861882846FFF7A6FEE1882846FFF732
:1016D00095FE70BD2DE9F04105460C460026012718
:1016E000608808B9022600E00026A088012801D100
:1016F000022700E001272088A0B92389A2886188F9
:101700002846FFF766FFE1882846FFF759FF23893F
:101710003A4631462846FFF712FFE1882846FFF790
:1017200001FF13E02389A28861882846FFF707FF9D
:10173000E1882846FFF7F6FE23893A4631462846D7
:10174000FFF747FFE1882846FFF73AFFBDE8F08141
:101750000A884B881A438B881A43CB881A430B8913
:101760001A434B891A438B891A43A0F844207047C7
:101770004FF6FF71818000210180C180418001729C
:1017800070470021018041808180C18001814181B9
:101790008181C181704700210180418001218180C8
:1017A0000021C1800181704700210180418081803A
:1017B000C18001814181818170470000002C01407E
:1017C000003401400004004000080040000C0040CC
:1017D00021B1028842F00102028004E002884FF643
:1017E000FE731A400280704731B1B0F8442042F4D1
:1017F0000042A0F8442005E0B0F84420C2F30E02F5
:10180000A0F8442070471AB183890B43838102E01A
:1018100083898B43838170478182704741EA020349
:10182000A0F8483070471AB183890B43838102E0E6
:1018300083898B438381704701894FF6F872114089
:10184000018170470A46002101894FF68F731940C4
:1018500011430181704730B504460D4629462046A4
:10186000FFF7F0FF208940F00700208130BD2DE90F
:10187000F04104460D4616461F46602D06D13B46F4
:10188000012231462046FFF75AFE05E03B46012281
:1018900031462046FFF79DFE29462046FFF7D2FF3E
:1018A000208940F007002081BDE8F08130B50C466A
:1018B00000210189C9B24FF6FF7505EA03251543DA
:1018C00025432943018130BD2DE9F04105460E46EF
:1018D00017469846002443463A4631462846FFF7C5
:1018E000E5FF2C894FF6F870044044F007044FF6EA
:1018F0008F70044044F070042C81BDE8F081F0B595
:1019000004460D4616461F463B46324629462046AB
:10191000FFF7CCFF208940F480402081F0BD018595
:10192000828270470A46002101884FF68F73194062
:10193000114301807047F0B50C4615461E46002144
:10194000002200230189028B038C4FF6F87739407F
:1019500021434FF6FC473A4040F201173A434FF615
:10196000DD773B404FF6FF7707EA06172F433B43EF
:10197000018102830384F0BD0A460021018B4FF6EA
:101980008F7319401143018370470A460021018B70
:1019900048F6FF7319404FF6FF7303EA0223194319
:1019A000018370470A460021818B4FF68F731940DF
:1019B0001143818370470A460021818B48F6FF73EB
:1019C00019404FF6FF7303EA0223194381837047DE
:1019D00021B1028842F08002028004E002884FF6C2
:1019E0007F731A400280704721B1828842F004025E
:1019F000828004E082884FF6FB731A408280704731
:101A000021B1828842F00802828004E082884FF689
:101A1000F7731A408280704721B1828842F0010238
:101A2000828004E082884FF6FE731A4082807047FD
:101A30000A460021018B4FF6F773194011430183C9
:101A400070470A460021018B4FF2FF7319404FF691
:101A5000FF7303EA02231943018370470A460021FA
:101A6000818B4FF6F77319401143818370470A4603
:101A70000021818B4FF2FF7319404FF6FF7303EA89
:101A800002231943818370470A460021018B4FF6D8
:101A9000FB7319401143018370470A460021018BF3
:101AA0004FF6FF3319404FF6FF7303EA0223194341
:101AB000018370470A460021818B4FF6FB73194062
:101AC0001143818370470A460021818B4FF6FF3313
:101AD00019404FF6FF7303EA0223194381837047CD
:101AE0000A460021018B4FF67F7319401143018391
:101AF00070470A460021018BC1F30E014FF6FF73B8
:101B000003EA02231943018370470A460021818BAF
:101B10004FF67F7319401143818370470A460021B5
:101B2000818BC1F30E014FF6FF7303EA02231943C1
:101B3000818370470A460021018C4FF6FD731940DE
:101B40001143018470470A460021018C4FF6F77358
:101B500019401143018470470A460021018C4FF659
:101B6000DF7319404FF6FF7303EA02131943018430
:101B700070470A460021018C4FF67F7319404FF6DB
:101B8000FF7303EA02131943018470470A460021D8
:101B9000018C4FF6FF5319404FF6FF7303EA0223FF
:101BA0001943018470470A460021018C4FF2FF73EC
:101BB00019404FF6FF7303EA02231943018470476B
:101BC0000A460021018C4DF6FF7319404FF6FF7352
:101BD00003EA023319430184704730B5002301241E
:101BE0008C40A3B2048C9C430484048C02FA01F55B
:101BF000ADB22C43048430BD30B5002304248C40A6
:101C0000A3B2048C9C430484048C02FA01F5ADB2A7
:101C10002C43048430BD70B50346002000241846D0
:101C2000183001258D40ACB21D8CA5431D8409B12F
:101C3000082909D100EB6100056825F070050560F1
:101C40000568154305600EE00D1FC5F34E052844D9
:101C5000056825F4E045056005684FF6FF7606EA5D
:101C600002263543056070BD21B1028842F00202B0
:101C7000028004E002884FF6FD731A40028070472C
:101C800021B1028842F00402028004E002884FF68B
:101C9000FB731A400280704721B1828842F08002B3
:101CA000828004E082884FF67F731A4082807047FA
:101CB00002884FF6F7731A40028002880A430280B6
:101CC000704782884FF68F731A40828082880A4359
:101CD0008280704702894FF6F8731A4002810289A8
:101CE0000A430281704702894FF67F731A400281CE
:101CF00002890A4302817047818470478185704759
:101D0000818670470187704781877047A0F840102F
:101D1000704702884FF6FF431A40028002880A4348
:101D2000028070470146888E70470146088F7047D1
:101D30000146888F70470146B1F840007047014660
:101D4000888C70470146088D704702460020138A30
:101D50000B4201D0012000E000207047CA430282FC
:101D6000704730B50246002000230024158A05EA9A
:101D70000103958905EA010413B10CB1012000E0CB
:101D8000002030BDCA4302827047000010B50446EF
:101D9000FB48844209D101218803FEF715FF002189
:101DA0004FF48040FEF710FF32E0F648844209D13C
:101DB00001214804FEF715FF00214FF40030FEF723
:101DC00010FF25E0F048844209D101218804FEF784
:101DD00008FF00214FF48020FEF703FF18E0EB48D6
:101DE000844209D10121C804FEF7FBFE00214FF413
:101DF0000020FEF7F6FE0BE0E548844208D1012101
:101E00000805FEF7EEFE00214FF48010FEF7E9FE14
:101E100010BD2DE9F04786B005460E460024A246C7
:101E200000BFA1460027B08900B100BF2F462C8A11
:101E30004CF6FF700440F08804432C82AC894EF6C7
:101E4000F3100440B0883189084371890843044382
:101E5000AC81AC8A4FF6FF400440B0890443AC82A9
:101E600001A8FEF72AFEC648874202D1DDF810A07D
:101E700001E0DDF80CA0A88910F4004F08D00AEBAF
:101E8000CA0000EB0A1031684900B0FBF1F807E026
:101E90000AEBCA0000EB0A1031688900B0FBF1F8C8
:101EA0006420B8FBF0F004012009642101FB1089D3
:101EB000A88910F4004F08D0322000EBC900B0FB15
:101EC000F1F000F00700044308E0322000EB0910B5
:101ED0006421B0FBF1F000F00F0004432C8106B048
:101EE000BDE8F0874FF41651016000218180C18068
:101EF00001810C21418100218181704710B502468A
:101F00000020108A4FF2FF0318400B884C882343AF
:101F10008C882343CC8823431843108210BD0021B2
:101F2000018041808180C180704721B1828942F463
:101F30000052828104E082894DF6FF731A4082814B
:101F40007047F0B503460024002600250020A1F5C7
:101F500010676A3F00D100BF1846C1F3421401F078
:101F60001F06012707FA06F5012C01D10C3004E009
:101F7000022C01D1103000E014301AB107682F4351
:101F8000076002E00768AF430760F0BD1AB1838ABB
:101F90000B43838202E0838A8B4383827047028AE9
:101FA0004FF6F0731A400282028A0A430282704797
:101FB00082894FF2FF731A40828182890A438281AB
:101FC000704721B1828942F00202828104E0828955
:101FD0004FF6FD731A4082817047028A4FF6DF7315
:101FE0001A400282028A0A430282704721B1028AA1
:101FF00042F48042028204E0028A4BF6FF731A40E8
:1020000002827047C1F308028280704701468888C7
:10201000C0F308007047818941F001018181704758
:10202000028BD2B20283028B42EA01220283704702
:10203000028B02F47F420283028B0A4302837047C1
:1020400021B1828A42F02002828204E0828A4FF625
:10205000DF731A408282704721B1828A42F01002F7
:10206000828204E0828A4FF6EF731A4082827047C0
:1020700021B1828A42F00802828204E0828A4FF60D
:10208000F7731A408282704721B1828942F400427C
:10209000828103E08289C2F30E028281704721B1FE
:1020A000828A42F40062828204E0828A4FF2FF73E5
:1020B0001A4082827047828A4FF6FB731A408282EE
:1020C000828A0A438282704721B1828A42F00202E8
:1020D000828204E0828A4FF6FD731A408282704742
:1020E00002460020B1F5007F00D100BF13880B42EB
:1020F00001D0012000E00020704701F40072B2F529
:10210000007F00D100BFCA430280704770B502460D
:102110000024002300250020A1F510666A3E00D1AE
:1021200000BFC1F3421501F01F03012606FA03F3B5
:10213000012D02D19689334006E0022D02D1168A84
:10214000334001E0968A33400C12012606FA04F46B
:102150001688344013B10CB1012000E0002070BD9E
:1021600010B500220023A1F510646A3C00D100BF25
:102170000A1201249440A3B2DC43048010BD000085
:10218000003801400044004000480040004C00403E
:10219000005000400948804709480047FEE7FEE735
:1021A000FEE7FEE7FEE7FEE7FEE7FEE7FEE7FEE707
:1021B00004480549054A064B704700008D03000896
:1021C000ED0000086001002060070020600300208F
:1021D0006003002008B501210C20FEF7DBFC102075
:1021E0008DF803004FF6FF70ADF8000003208DF866
:1021F000020069466C48FEF717FA10208DF80300BC
:1022000003208DF8020069466748FEF70DFA4FF487
:102210004070ADF8000069466448FEF705FA08BD55
:1022200010B520216048FEF7ACFA40215E48FEF769
:10223000A6FA80215C48FEF7A4FA4FF480715A4850
:10224000FEF79DFA4FF400715748FEF79AFA4FF4E3
:1022500080615548FEF793FA4FF480715348FEF7BA
:1022600090FA4FF400715148FEF789FA10BD10B58D
:1022700040214D48FEF785FA20214B48FEF77FFAB2
:102280004FF480714848FEF77CFA80214648FEF7FB
:1022900076FA4FF480614448FEF773FA4FF4007108
:1022A0004148FEF76CFA4FF400714048FEF769FAB6
:1022B0004FF480713D48FEF762FA10BD10B5202141
:1022C0003948FEF75EFA40213748FEF758FA4FF4D6
:1022D00080713548FEF755FA80213348FEF74FFAF2
:1022E0004FF480613048FEF74CFA4FF400712E48ED
:1022F000FEF745FA4FF480712C48FEF742FA4FF48E
:1023000000712A48FEF73BFA10BD10B5402126485F
:10231000FEF737FA20212448FEF731FA80212248BF
:10232000FEF72FFA4FF480711F48FEF728FA4FF49A
:1023300000711D48FEF725FA4FF480611A48FEF738
:102340001EFA4FF400711948FEF71BFA4FF4807122
:102350001648FEF714FA10BD10B540211248FEF7DA
:1023600010FA20211048FEF70AFA80210E48FEF7E5
:1023700008FA4FF480710C48FEF701FA4FF48061BF
:102380000948FEF7FEF94FF400710748FEF7F7F928
:102390004FF480710548FEF7F4F94FF400710348DB
:1023A000FEF7EDF910BD000000080140000C0140EF
:1023B0002DE9F04188B004460D4616461F46DDF86B
:1023C000388001210320FEF7F2FB01210D20FEF7EA
:1023D000E1FB0320ADF81C0018208DF81F0003203E
:1023E0008DF81E0007A94848FEF71EF90320ADF836
:1023F0001C0018208DF81F0003208DF81E0007A96F
:102400004248FEF711F901214148FEF7DCF9601E50
:1024100080B2ADF814000020ADF81000ADF8160041
:10242000ADF8120004A94FF08040FEF775FE601E63
:1024300080B2ADF814000020ADF81000ADF8160021
:10244000ADF8120004A93348FEF766FE6020ADF82F
:1024500000000120ADF802000020ADF80800A8B28D
:10246000ADF8060069464FF08040FEF792FE60200E
:10247000ADF800000120ADF802000020ADF8080022
:10248000B0B2ADF8060069464FF08040FEF7C3FEDB
:102490006020ADF800000120ADF802000020ADF88A
:1024A0000800B8B2ADF8060069461A48FEF700FF0A
:1024B0006020ADF800000120ADF802000020ADF86A
:1024C00008001FFA88F0ADF8060069461148FEF7CB
:1024D0003AFF0821C806FFF7ABFA0821C806FFF744
:1024E000B0FA08210B48FFF7B9FA08210948FFF7AD
:1024F000BEFA01218807FFF76BF901210548FFF7B4
:1025000067F908B0BDE8F08100080140000C014007
:10251000000218000004004010B504464C48008832
:102520004FF6C77108404A49088008460088204392
:10253000088001214648FEF760FC10BD70B50546D5
:10254000002405E0601CC4B2C82C01DD002070BD71
:1025500002213F48FEF7D5FC0028F3D029463C482D
:10256000FEF77CFC002405E0601CC4B2C82C01DD31
:102570000020ECE701213648FEF7C3FC0028F3D029
:102580003348FEF76DFCC0B2E1E700B587B001212A
:102590000820FEF7FFFA01218803FEF708FB4FF43D
:1025A0006040ADF8180018208DF81B0003208DF84E
:1025B0001A0006A92748FEF737F84FF48050ADF807
:1025C000180010208DF81B0003208DF81A0006A9B2
:1025D0002048FEF729F84FF480511E48FEF7CFF847
:1025E0004FF400511B48FEF7CCF84FF480411948D6
:1025F000FEF7C5F84FF400411648FEF7C2F8002078
:10260000ADF804004FF48270ADF806000020ADF87C
:102610000800ADF80A00ADF80C004FF40070ADF8FA
:102620000E003820ADF810000020ADF81200072091
:10263000ADF8140001A90648FEF73AFB1020FFF799
:102640006BFF01210248FEF7D8FB07B000BD000078
:1026500000380040000C0140014600BF704700BF39
:10266000494A128812F0400FFAD0C2B2464B1B1DE5
:102670001A80704710B586B00446012144F2040068
:10268000FEF788FA4FF40070ADF8140003208DF8BF
:10269000160018208DF8170005A93C48FDF7C4FF67
:1026A0004FF48060ADF8140004208DF8170005A9E0
:1026B0003648FDF7B9FF25208DF8000003208DF87E
:1026C00001008DF8020001208DF803006846FDF737
:1026D000E2FE01940020ADF80800ADF80A00ADF864
:1026E0000C00ADF810000C20ADF80E0001A9264832
:1026F000FFF78FFB012240F225512348FFF721FC11
:1027000001212148FFF711FC06B010BD10B540F2C1
:1027100025511D48FFF7FAFC10B31B48FFF776FC64
:10272000C4B21B48008810F4004F2BD11848008811
:1027300010F4804F0CD00A2C03D0002014490880DC
:1027400020E01348008840F400401149088019E057
:102750000D2C06D10E48008840F480400C490880BA
:1027600010E00B480088C0F30D000A490C540848DB
:102770000088401C0649088008460088C72801DDFB
:102780000020088010BD0000003801400008014012
:102790002C00002034000020704700000FB40449D2
:1027A00010B503AA029800F0D5F810BC5DF814FB30
:1027B000300000202DE9F0410E4604460020206242
:1027C0002046E168884730B3252805D0D4E90121A7
:1027D0009047206A401CF2E7E168204600278847BE
:1027E000050018D0A5F14100192802D820354FF472
:1027F00000673246294620462760FDF7B1FC40B10C
:10280000012804D0F61D26F007060836D8E7361D45
:10281000D6E72846DAE7206ABDE8F0812DE9F041E5
:102820000646002410687529314616A511D0AFF36D
:102830000080002803DAC0F1000013A507E031682A
:102840008A0701D511A502E0490704D510A5012486
:1028500001E0AFF3008000210A2306F1240707E01E
:10286000B0FBF3F203FB1200303078541046491CE1
:102870000028F5D123462A463046BDE8F04100F055
:102880000DB80000000000002D0000002B0000002B
:102890002000000070477047704770472DE9F047EF
:1028A0000D4699469246044600F1240801688806C0
:1028B00004D5E06921F01001216000E00120A84268
:1028C00002DDA0EB050700E00027A16907EB050288
:1028D00002EB0900A1EB0000A0612078C00602D441
:1028E0002046AFF30080002608E0D4E901211AF861
:1028F00006009047206A401C761C20624E45F4DB9F
:102900002078C0060AD52046AFF3008006E0D4E95F
:10291000012130209047206A401C2062381EA7F118
:102920000107F4DC07E0D4E9012118F8050090471D
:10293000206A401C2062281EA5F10105F3DC204618
:10294000AFF300802078000602D50220BDE8F087B2
:102950000120FBE7074B70B50D467B4400F011F8F2
:102960000446284600F020F810B14FF0FF3070BD4B
:10297000204670BD01FDFFFF01694A1C0261087815
:10298000704700B58FB0CDE90131002105910549AF
:102990007944CDE9031011466846FFF70BFF0FB0ED
:1029A00000BD0000E5FFFFFF007B00F080007047E6
:1029B000754600F029F8AE4605006946534620F0FA
:1029C0000700854618B020B5FFF7F2FBBDE82040B0
:1029D0004FF000064FF000074FF000084FF0000BDB
:1029E00021F00701AC46ACE8C009ACE8C009ACE88E
:1029F000C009ACE8C0098D4670470446AFF30080BB
:102A00002046FDF7BFFB000000487047FC00002097
:102A1000302A0008000000203400000028010008CF
:102A2000642A0008340000202C070000440100083C
:102A30000000000000A24A040000000000000000A6
:102A40000102030406070809000000000102030454
:102A5000010203040607080902040608000000003A
:042A60000000000072
:04000005080000ED02
:00000001FF
